:1000000002000375817F75E800759500758F79751D
:100010008E247594307593197592127591020203AE
:10002000F67A5A79FA78FAD8FED9FADAF622758F82
:1000300079758E24759430759319759212759102A5
:1000400022758FFF758EFF7594FF7593FF759278FB
:1000500075910022758F79758E247594307593197A
:100060007592127591027C007D7830FB2720EB049D
:1000700012009722120021AE8F858E8F85948E8577
:1000800093948592938591928D91ECFDEEFC30FBDB
:10009000030200740203EE120021120021AE8F85CC
:1000A0008E8F85948E8593948592938591928D9170
:1000B000ECFDEEFC30FBDD020097758F79758E2428
:1000C0007594307593197592127591027C007D7844
:1000D00030FBC120EB041200FA22120021AE918500
:1000E0009291859392859493858E94858F8E8C8F33
:1000F000EDFCEEFD30FB9D0200DA12002112002122
:10010000AE91859291859392859493858E94858FF7
:100110008E8C8FEDFCEEFD30FB030200FA0203EE45
:10012000758F30758E197594127593027592787566
:10013000910030FBE820EB041201572212002175D8
:100140008FFF758EFF7594FF7593FF7592FF759104
:10015000FF120021020120120021120021758FFFE1
:10016000758EFF7594FF7593FF7592FF7591FF1261
:100170000021120021020120758FFF758EFF7594FA
:10018000FF7593FF7592FF7591FF30FB0720EB071A
:100190001201D3220203EE120021758F7912002181
:1001A00030FBF1758E2412002130FBE8759430127B
:1001B000002130FBDF75931912002130FBD67592B8
:1001C0001212002130FBCD75910212002130FBC4C8
:1001D000020178120021120021758F79120021127C
:1001E000002130FB3F758E2412002112002130FBCC
:1001F0003375943012002112002130FB27759319BA
:1002000012002112002130FB1B75921212002112E4
:10021000002130FB0F75910212002112002130FBEA
:10022000030201780203EE758F09758E06759447F7
:100230007593477592407591FF30FBE820EB3A12B9
:10024000027F22758F79758E247594307593197598
:10025000921275910230FBCC20EB2D12028E758F1D
:1002600046758E0C75944875933075927975912406
:1002700030FBB120EB2112029D1200210202431239
:10028000002112002102024312002102025E12002C
:100290002112002102025E12002102022712002117
:1002A000120021020227758FFF758EFF7594FF756E
:1002B00093FF7592FF7591FF30FB0720EC07120347
:1002C0005B220203EE20EB03120307120021759458
:1002D0007912002130FBEB75912412002130FBE2F2
:1002E00075933012002130FBD9758E191200213020
:1002F000FBD075921212002130FBC7758F021200DD
:100300002130FBBE0202A612002112002175947951
:1003100012002112002130FBA97591241200211234
:10032000002130FB9D75933012002112002130FB1B
:1003300091758E1912002112002130FB85759212E1
:1003400012002112002130FB0F758F0212002112C2
:10035000002130FB030202A60203EE20EB0312038E
:100360009D120021758E3012002130FBEB75911922
:1003700012002130FBE275941212002130FBD97576
:100380008F0212002130FBD075927812002130FBD1
:10039000C775930012002130FBBE0202A612002195
:1003A000120021758E3012002112002130FB3F75A2
:1003B000911912002112002130FB337594121200A2
:1003C0002112002130FB27758F021200211200211B
:1003D00030FB1B75927812002112002130FB0F7543
:1003E000930012002112002130FB030202A6E5E86F
:1003F0005407FB0203F630FBF58BE8BB0003120049
:100400002EBB0103120041BB0203120054BB0303C5
:100410001200BAB40403120120B40503120178B427
:0B0420000603120227B407CE1202A64A
:00000001FF
